:1000000002104A309804AF99C298220217F6E47899
:0900100069F608F608F608F6226C
:10001B000217FD0203DFE86480F8E933E83360116F
:10002B000460F0ED33EC337009E8FCE9FDEAFEEB1C
:10003B00FF220460DED3EB9FEA9EE99DE8C2E78CCA
:10004B00F0C2F795F0400CE8CCF8E9CDF9EACEFA1E
:10005B00EBCFFB1203AA85D0F05804700320D5B365
:10006B00E80470075002B2D50203E992D5EC0460A4
:10007B00F7E4CCC0E0C398F8603B94186008400DDF
:10008B00D0E0FB0203C1E4FBFAC9FC8028E830E4B2
:10009B0006E4C9FBE4CAFCE830E305E4C9CACBFCBF
:1000AB00E854076010F8C3E913F9EA13FAEB13FBF2
:1000BB00EC13FCD8F130F52FC3E49CFCEF9BFFEE67
:1000CB009AFEED99FDD0E0FBEF4E4D4C701222DB0A
:1000DB00030203E6EC2CFCEF33FFEE33FEED33FDB6
:1000EB00ED30E7EB0203C1EF2BFFEE3AFEED39FDEE
:1000FB00D0E0FB50130BBB00030203E9ED13FDEE45
:10010B0013FEEF13FFEC13FC0203C1EC4D6011E87F
:10011B00497017ED33EC3304600DE4FCFFFEFD2258
:10012B00E933E8330470F80203DF1203AA580460C2
:10013B0009E4CC248150062850090203E928400326
:10014B000203E6C0E0EB4A7044B98006D0E0FB0244
:10015B0003D5EF4E701CBD8008EBFFEAFEE9FD8076
:10016B00EBE98DF0A4FEE5F00201FFE9CDF9EAFE23
:10017B00EBFFEF89F0A4FCE5F0CE89F0A42EFFE4B1
:10018B0035F0CD89F0A42DFEE435F08067EF4E708D
:10019B0005BD80D780C3EF8BF0A4ACF0EE8BF0A441
:1001AB002CFCE435F0F8EF8AF0A42CE5F038FCE4F5
:1001BB0033CB8DF0A42CFCE5F03BF8EE8AF0A42CAD
:1001CB00FCE5F038F8E433CF89F0A42CFCE5F038EB
:1001DB00CF3400CE89F0A42FFFE5F03EFEE433C907
:1001EB008DF0A42EFEE5F039CD8AF0A42FFFE5F0BB
:1001FB003EFEE43DFD33D0E0FB50070BBB000F028E
:10020B0003E9EC2CFCEF33FFEE33FEED33FD020381
:10021B00C10203E9EC5D046005E8590470030203B5
:10022B00DF1203AA580460F6EC4860F2EC7004FD90
:10023B00FEFF22C860DB2481C85009C398600250BE
:10024B00060203E69850CAF582E9294B4A7005ABC2
:10025B00820203D575F0007C1A7880C3EF9BEE9A6F
:10026B00ED99400DC3EF9BFFEE9AFEED99FDE84231
:10027B00F0DC23ACF0D0E0FFD0E0FED0E0FDAB82B1
:10028B0020E7101BEB60BAEC2CFCEF33FFEE33FED8
:10029B00ED33FD0203C1E803F830E705C0F075F05C
:1002AB0000EF2FFFEE33FEED33FD40B830E7C28099
:1002BB00AA74F8CC6480CCC86480C8F58204604F03
:1002CB00C3EB9FF5F0EA9E42F0E99D42F0E89C45B6
:1002DB00F0603C501DE5825FFFE582D313CB5BCB17
:1002EB00F42B5582FB50280ABA002409B9002008C8
:1002FB00801DE5825BFBE582D313CF5FCFF4C31385
:10030B002F5582FF50090EBE00050DBD00010CC319
:10031B00EB9FF5F0EA9E42F0E99D42F0E89C45F038
:10032B006007CC4820E701B3EC2275F020800E75F6
:10033B00F010800575F0087D007E007F003392D5AC
:10034B0030D5031204C6EC334010EF33FFEE33FE0F
:10035B00ED33FDEC33FCD5F0ED22E5F0247EA2D598
:10036B0013CC92E7CDCEFF22EDD2E7CD33EC339217
:10037B00D524814006E4FFFEFDFC22FCE4CFCECD6C
:10038B00CC24E0501174FF80EDC3CC13CCCD13CD36
:10039B00CE13CECF13CF0470F030D5DE0204C6E9F6
:1003AB00D2E7C933E833F892D5EDD2E7CD33EC334E
:1003BB00FC5002B2D522EC30E7100FBF000C0EBE82
:1003CB0000080DBD00040BEB6014A2D5EB13FCED84
:1003DB0092E7FD2274FFFCFDFEFF22E480F8A2D51C
:1003EB0074FF13FC7D80E480EFBB010689828A8356
:1003FB00E0225002E722BBFE02E32289828A83E4D9
:10040B009322BB010CE58229F582E5833AF583E063
:10041B00225006E92582F8E622BBFE06E92582F882
:10042B00E222E58229F582E5833AF583E49322BB48
:10043B00010989828A83F8E028F022500327F722EA
:10044B00BBFE05F8E328F3228A838982F8E493281C
:10045B0022F8BB010DE58229F582E5833AF583E8A5
:10046B00F0225006E92582C8F622BBFE05E925825B
:10047B00C8F222EF8DF0A4A8F0CF8CF0A428CE8D7B
:10048B00F0A42EFE22C2D5EC30E709B2D5E4C39D11
:10049B00FDE49CFCEE30E715B2D5E4C39FFFE49E70
:1004AB00FE120527C3E49DFDE49CFC800312052787
:1004BB0030D507C3E49FFFE49EFE22C3E49FFFE415
:1004CB009EFEE49DFDE49CFC22EB9FF5F0EA9E4230
:1004DB00F0E99D42F0EC6480C864809845F022EC12
:1004EB00F0A3EDF0A3EEF0A3EFF022A8828583F04A
:1004FB00D083D08212050D12050D12050D12050DBC
:10050B00E473E493A3C583C5F0C583C8C582C8F063
:10051B00A3C583C5F0C583C8C582C822BC000BBE6A
:10052B000029EF8DF084FFADF022E4CCF875F008D4
:10053B00EF2FFFEE33FEEC33FCEE9DEC984005FC09
:10054B00EE9DFE0FD5F0E9E4CEFD22EDF8F5F0EED1
:10055B008420D21CFEADF075F008EF2FFFED33FDBC
:10056B004007985006D5F0F222C398FD0FD5F0EA5C
:10057B0022C5F0F8A3E028F0C5F0F8E582158270EB
:10058B00021583E038F02275F008758200EF2FFF1B
:10059B00EE33FECD33CDCC33CCC58233C5829BED50
:1005AB009AEC99E58298400CF582EE9BFEED9AFD54
:1005BB00EC99FC0FD5F0D6E4CEFBE4CDFAE4CCF904
:1005CB00A88222B800C1B90059BA002DEC8BF08477
:1005DB00CFCECDFCE5F0CBF97818EF2FFFEE33FE45
:1005EB00ED33FDEC33FCEB33FB10D703994004EBFD
:1005FB0099FB0FD8E5E4F9FA227818EF2FFFEE33C9
:10060B00FEED33FDEC33FCC933C910D7059BE99ADA
:10061B004007EC9BFCE99AF90FD8E0E4C9FAE4CC6B
:10062B00FB2275F010EF2FFFEE33FEED33FDCC33D5
:10063B00CCC833C810D7079BEC9AE899400AED9BBE
:10064B00FDEC9AFCE899F80FD5F0DAE4CDFBE4CC9D
:10065B00FAE4C8F9228F358E348D338C328B368A7F
:10066B003789389000141204F6FFFFFFFFE4FFFEFA
:10067B00FDFCAB35AA34A933A8321202BC5024902E
:10068B0000141204F60000002DAF35AE34AD33ACC0
:10069B0032E4FBFA798078BF1201168F358E348DD8
:1006AB00338C32AF35AE34AD33AC3290001812040C
:1006BB00EAAF35AE34AD33AC3212037390000C128B
:1006CB0004EA9000001204F60000000090000412EF
:1006DB0004F60000000090000CE0FCA3E0FDA3E09A
:1006EB00FEA3E0FFEC120335A804A905AA06AB078D
:1006FB00900018E0FCA3E0FDA3E0FEA3E0FF1200D6
:10070B0021E4FBFAF9F81202BC70030207C4900053
:10071B000CE0FCA3E0FDA3E0FEA3E0FFEC1203352D
:10072B00A804A905AA06AB07900018E0FCA3E0FDFE
:10073B00A3E0FEA3E0FF120021E4FBFAF9F812029A
:10074B00BC60054003D38001C3406E900004A3A39B
:10075B00E0FEA3E02401FDE43EFC7F0A7E001216BE
:10076B0060AC06AD07EC12033AAB35AA34A933A83B
:10077B00321201169000181204EA900018E0FCA344
:10078B00E0FDA3E0FEA3E0FF12037390000C120444
:10079B00EA900004E0FCA3E0FDA3E0FEA3E0FFE48D
:1007AB00FAF9F8EF2401FFEA3EFEE93DFDE83CFCD7
:1007BB009000041204EA0206E1E4FFFE7D807C3F18
:1007CB00AB35AA34A933A8321202BC60064004E44C
:1007DB00FF8003E47F01FEFDFC804FE4FFFE7D8084
:1007EB007C3FAB35AA34A933A8321202BC6043401C
:1007FB0041AF35AE34AD33AC32E4FBFA79207841FE
:10080B0012021F8F358E348D338C32900000E0FC3A
:10081B00A3E0FDA3E0FEA3E0FFE4FAF9F8EF240167
:10082B00FFEA3EFEE93DFDE83CFC9000001204EAC5
:10083B0080A9900000E0FCA3E0FDA3E0FEA3E0FF95
:10084B009000101204EA900000E0FCA3E0FDA3E08E
:10085B00FEA3E02401FFE43EFEE43DFDE43CFCA3EB
:10086B00E0F8A3E0F9A3E0FAA3E02FFFEA3EFEE9EC
:10087B003DFDE83CFC9000001204EA900018E0FCFF
:10088B00A3E0FDA3E0FEA3E0FF12037390000C12A4
:10089B0004EAE47F2DFEFDFC900014E0F8A3E0F9E0
:1008AB00A3E0FAA3E0FBC31204D47048900000E06D
:1008BB00FCA3E0FDA3E0FEA3E0FFE4FAF9F8EF24CC
:1008CB0001FFEA3EFEE93DFDE83CFC90000012040E
:1008DB00EA900010E0FCA3E0FDA3E0FEA3E0FFE440
:1008EB00F8EF2401FFEA3EFEE93DFDE83CFC9000F9
:1008FB00101204EA900000E0FCA3E0FDA3E0FEA3CD
:10090B00E0FF020A3B900008E0FCEC335003020AC4
:10091B0044900000E0FCA3E0FDA3E0FEA3E0FF9009
:10092B000008E0F8A3E0F9A3E0FAA3E0FB1204D47B
:10093B007016900008A3A3E0FEA3E0AB36AA37A97C
:10094B0038F5828E83E48073900010E0FCA3E0FD09
:10095B00A3E0FEA3E0FF900008E0F8A3E0F9A3E01A
:10096B00FAA3E0FBC31204D47017900008A3A3E012
:10097B00FEA3E0AB36AA37A938F5828E83742E809E
:10098B003AE47F2DFEFDFC900014E0F8A3E0F9A300
:10099B00E0FAA3E0FBC31204D47025900008E0FC3E
:1009AB00A3E0FDA3E0FEA3E0FFEC4D4E4F7011ABB7
:1009BB0036AA37A9388F828E83742D12045C80522D
:1009CB00E47B0AFAF9F890000CE0FCA3E0FDA3E04D
:1009DB00FEA3E0FF12137BEB2430FFC0079000084F
:1009EB00A3A3E0FEA3E0AB36AA37A938F5828E832A
:1009FB00D0E012045C90000CE0FCA3E0FDA3E0FE51
:100A0B00A3E0FFE47B0AFAF9F812137B90000C12B7
:100A1B0004EA900008E0FCA3E0FDA3E0FEA3E0FFE6
:100A2B00EF24FFFFEE34FFFEED34FFFDEC34FFFC53
:100A3B009000081204EA020910228F258D26E4F596
:100A4B0027C2007F47120D63D2007FA3120D63E50F
:100A5B002514600804700A7528F880087528FA8038
:100A6B000385252875270774017E00A827088005B4
:100A7B00C333CE33CED8F9FFE4FEEF5528A82708B1
:100A8B008006CEA2E713CE13D8F864014E7004D2C1
:100A9B00008002C2007F47120D63D2007F46120D09
:100AAB0063C2007F46120D631527C3E5276480944C
:100ABB008050B4E52654F0F52975270774017E00A4
:100ACB00A827088005C333CE33CED8F9FFE4FEEF59
:100ADB005529A827088006CEA2E713CE13D8F864B1
:100AEB00014E7004D2008002C2007F47120D63D208
:100AFB00007F46120D63C2007F46120D631527C39C
:100B0B00E5276480948050B4E526540FFFC454F05D
:100B1B00F52975270774017E00A827088005C333C4
:100B2B00CE33CED8F9FFE4FEEF5529A8270880066F
:100B3B00CEA2E713CE13D8F864014E7004D2008016
:100B4B0002C2007F47120D63D2007F46120D63C2B3
:100B5B00007F46120D631527C3E5276480948050F0
:100B6B00B4C2007FA3020D63EF4E7003020C7690AC
:100B7B00001EE07002A3E07003020C76CDEFCDCC2B
:100B8B00EECCED24FCFDEC34FFFC754900754A1CE2
:100B9B00854A82854983E0FAA3E08A4BF54C454BA5
:100BAB006011D3E54C9FE54B9E5008854B49854C16
:100BBB004A80DDE54C454B604A8D828C83A3A3E0D4
:100BCB00FAA3E02FFFEA3EFEEF654C7003EE654B98
:100BDB007031854C82854B83A3A3E0FEA3E02404F4
:100BEB00FFE43E8D828C83A3A38FF012057C854C92
:100BFB0082854B83E0FFA3E08D828C83CFF0A3EF44
:100C0B00F0800B8D828C83E54BF0A3E54CF0854A8D
:100C1B0082854983A3A3E0FEA3E0254AFFEE354975
:100C2B00FEEF2404FFE43EFEEF6D7002EE6C7030BD
:100C3B008D828C83A3A3E0FEA3E02404FFE43E8516
:100C4B004A82854983A3A38FF012057C8D828C8306
:100C5B00E0FFA3E0854A82854983CFF0A3EFF02222
:100C6B00854A82854983ECF0A3EDF0228D25EF14A4
:100C7B006044146079147003020D2D240360030289
:100C8B000D62E52524FE601514601D24026003022D
:100C9B000D62D2007FB2120D63C2008014C2007FBE
:100CAB00B2120D63D2008009D2007FB2120D63D253
:100CBB00007FB3020D5FE52524FE6018146022242B
:100CCB00026003020D62D2007FB4120D63C2007F7B
:100CDB00B5020D5FC2007FB4120D63D2007FB580E9
:100CEB0073D2007FB4120D63D2007FB58066E52509
:100CFB0024FE601414601E2402705CD2007FB612B6
:100D0B000D63C2007FB7804CC2007FB6120D63D259
:100D1B00007FB7803FD2007FB6120D63D2007FB742
:100D2B008032E52524FE601414601E24027028D244
:100D3B00007F76120D63C2007F778018C2007F762A
:100D4B00120D63D2007F77800BD2007F76120D637A
:100D5B00D2007F77120D6322EFC4540FFE7870F62A
:100D6B00EF540FFF7401A807088002C333D8FC7837
:100D7B0071F6EE24FCB408004003020E39900D9678
:100D8B0075F003A4C58325F0C58373020DAE020D68
:100D9B00BF020DD0020DE1020DF2020E03020E1482
:100DAB00020E25300004786080757871E6F4786067
:100DBB0056F6807A300004786180647871E6F478B6
:100DCB006156F68069300004786280537871E6F4DE
:100DDB00786256F68058300004786380427871E66A
:100DEB00F4786356F680473000047864803178716C
:100DFB00E6F4786456F68036300004786580207807
:100E0B0071E6F4786556F680253000047866800F1D
:100E1B007871E6F4786656F680143000097867E648
:100E2B00797147F680087871E6F4786756F6021404
:100E3B00F0EFB407004003020F02900E4CF8282885
:100E4B0073020E61020E7D020E99020EAA020EBBF8
:100E5B00020ECB020EE6D2007F63120D6390C00030
:100E6B00E07869F620E5057F141217CF7869E6A2C2
:100E7B00E522D2007F64120D6390C000E0786AF621
:100E8B0020E3057F141217CF786AE6A2E322D20083
:100E9B007F66120D6390C000E0786CF6A2E522D25B
:100EAB00007F66120D6390C000E0786CF6A2E6221C
:100EBB00D2007F66120D6390C000E0786CF633228F
:100ECB00D2007F63120D6390C000E07869F620E0DA
:100EDB00057F141217CF7869E61322D2007F6412B4
:100EEB000D6390C000E0786AF620E0057F141217BE
:100EFB00CF786AE6A2E222D3228B118A1289137869
:100F0B0068E670421216ECAB11AA12A9131203F485
:100F1B00D36480948040057F02121553AB14AA153D
:100F2B00A9161203F4D36480948040057F03121535
:100F3B0053AB17AA18A9191203F4D36480948040F9
:100F4B00057F04121553786806E6641E70457F0210
:100F5B00120E3C500BAB11AA12A91374FF12043AD8
:100F6B007F03120E3C500BAB14AA15A91674FF127B
:100F7B00043A7F04120E3C500BAB17AA18A9197434
:100F8B00FF12043A7F021215847F031215847F042B
:100F9B00121584D37868E6648094BC4004E4F6D3DD
:100FAB0022D3228E458F467E007F1C8F828E83E05C
:100FBB00FCA3E0FD4C7003FEFF228D828C83A3A368
:100FCB00E0FAA3E0FBC39546EA95455008CEECCE7C
:100FDB00CFEDCF80D6C3EB9546F548EA9545F5475F
:100FEB00C3E5489410E547940050198D828C83E03B
:100FFB00FBA3E08F828E83CBF0A3EBF0ED2404FFF9
:10100B00E43CFE2274FC2548F54874FF3547F54750
:10101B008D828C83A3A3F0A3E548F0ED2404FFE4B9
:10102B003CFEEF2548FFEE3547FE8F82F583A3A3E9
:10103B00E545F0A3E546F0EF2404FFE43EFE2278FD
:10104B007FE4F6D8FD758174021091021153E4937D
:10105B00A3F8E493A34003F68001F208DFF48029A0
:10106B00E493A3F85407240CC8C333C4540F44208F
:10107B00C8834004F456800146F6DFE4800B01027E
:10108B00040810204080901724E47E019360BCA3D9
:10109B00FF543F30E509541FFEE493A360010ECFCC
:1010AB0054C025E060A840B8E493A3FAE493A3F8F6
:1010BB00E493A3C8C582C8CAC583CAF0A3C8C582B6
:1010CB00C8CAC583CADFE9DEE780BE8E088F098BED
:1010DB000A8A0B890CE4F50DF50EF50FF5101217B6
:1010EB00BA8E0D8F0E8055C3E510950EE50D6480FD
:1010FB00F8E50F648098504BAB0AAA0BA90C0510AE
:10110B00E510AE0F7002050F14F5828E8312040DDD
:10111B00FD7F01120A45AE0FAF107C007D1012044B
:10112B0090ED4C70C20509E50970020508D39404D3
:10113B00E50894004006750800750901AF09121601
:10114B008780A4AE0DAF0E22E4F521F522F523F531
:10115B00241217727F0112160E7F05120E3C4019D6
:10116B007D03E4FF120C777D037F01120C777D0367
:10117B007F02120C777D03803E7F06120E3C5019C6
:10118B007D01E4FF120C777D017F01120C777D014D
:10119B007F02120C777D01801E7F06120E3C40B938
:1011AB007D02E4FF120C777D027F01120C777D022A
:1011BB007F02120C777D027F03120C77809BE4F584
:1011CB0039F53AF53BF53CF539F53A121637753BDF
:1011DB00008F3CE53C6455453B701C7DAA1215E223
:1011EB00121637EF64AA60297BFF7A18790A7F04FD
:1011FB007E001210D6801A7D551215E2121637EFAB
:10120B006455600D7BFF7A18790A7F047E001210FB
:10121B00D6AD3C1215E2053AE53A70020539C3E545
:10122B0039940840A67BFF7A1879167F047E00025A
:10123B0010D68B508A518952E4900024F01217BAC1
:10124B00900025EEF0A3EFF0E4900024F090002442
:10125B00E0FF3395E0FED3900026E09FEE6480F82C
:10126B00900025E06480984023AB50AA51A952907E
:10127B000024E03395E08F82F58312040DF599304D
:10128B0099FDC299900024E004F080C122E4FF1282
:10129B001804400A0554E554703B05538037C3E5E9
:1012AB00549405E55394004015D3E5549496E553B7
:1012BB009400500A755501E4F553F5548017D3E5A6
:1012CB00549496E5539400400CE4FF121584E4F516
:1012DB0053F554D322E555B40105E4F555D322C398
:1012EB00228E2A8F2B900027E4F0A3741EF07E0031
:1012FB007F30FD7C0012147F900027E0FEA3E0FFFF
:10130B00120FAE8E308F31AF2FAE2EAD2DAC2CAA6F
:10131B0030A9317B01120660AA30A9317B01AF2BBA
:10132B00AE2A1210D6AF31AE30020B73EF1460142D
:10133B0014601B146022146029240470327D01E4B4
:10134B00FF020A457BFF7A1879347F01801C7BFFF3
:10135B007A1879347F0280127BFF7A1879347F03F5
:10136B0080087BFF7A1879347F047E001210D62216
:10137B00C2D5E830E70FB2D5E4C39BFBE49AFAE49D
:10138B0099F9E498F8EC30E717B2D51213B11205BE
:10139B00CEE4C39BFBE49AFAE499F9E498F8800352
:1013AB001205CE30D50DE4C39FFFE49EFEE49DFDF8
:1013BB00E49CFC228D3E8B3FEF14600704700BC244
:1013CB00008002D2007FA1120D63902000E53EF059
:1013DB007F07121709E53F44807872F6902000F0E2
:1013EB007F07121709E53E25E0F53EE540423E90AA
:1013FB002000E53EF0228D428B43EF146007047012
:10140B000BC2008002D2007FA4120D63903000E566
:10141B0042F07F07121709E54344807873F690304A
:10142B0000F07F07121709E54225E0F542E544423B
:10143B0042903000E542F0228E5C8F5DC2AFC2B5A8
:10144B007F031214C1E55CFF1214C1AF5D1214C10E
:10145B001216CD754D008F4EE54E754E00F54D12A3
:10146B0016CDEF254EF54EE4354DF54DD2B5D2AF39
:10147B00FEAF4E22EF4E7008FE7F01ED1D70011C7A
:10148B0090001CEEF0A3EFF0A3ECF0A3EDF09000B6
:10149B001CE0FEA3E0FFF5828E83E4F0A3F0ED24C5
:1014AB00FCFDEC34FF8F828E83A3A3F0A3EDF0221F
:1014BB00C2AFC2B57F06AD07E4F54FC29274807E12
:1014CB0000A84F088006CEA2E713CE13D8F8FFED85
:1014DB00FBEF5B6002D292D291C291054FE54FB404
:1014EB0008D9C292227860E6904000F008E690504E
:1014FB0000F008E6906000F008E6907000F008E657
:10150B00908000F008E6909000F008E690A000F0C4
:10151B0008E690B000F0228E1A8F1B8C1C8D1D12CA
:10152B0014BBD2B50000C2B57F021214C1E51AFF7D
:10153B001214C1AF1B1214C1E51CFF1214C1AF1D55
:10154B001214C1D2B5D2AF22EF146013146016146B
:10155B00601914601C2404701FD2007F868016D281
:10156B00007F878010D2007F70800AD2007F71804D
:10157B0004D2007F72120D6322EF146013146016F5
:10158B0014601914601C2404701FC2007F8680161F
:10159B00C2007F878010C2007F70800AC2007F71FB
:1015AB008004C2007F72120D63228F5FE55F24F00F
:1015BB00600E24F0600A24E0600624387009800075
:1015CB00902000E55F80059020007478F09030004B
:1015DB00F07F011217CF22AF3AAE398E588F59AC2C
:1015EB00051214BBD2B500C2B57F021214C1E55867
:1015FB00FF1214C1AF591214C1AF041214C1D2B5EA
:10160B00D2AF22EF14601114601214601314601423
:10161B00240470177D08800E7D0C800A7D0E8006D9
:10162B007D0D80027D0FE4FF120A4522AF3AAE39E1
:10163B008E5A8F5BC2AFC2B57F031214C1E55AFF3E
:10164B001214C1AF5B1214C11216CD754D008F4E23
:10165B00D2B5D2AF228E568F57AB05AA047F017E2F
:10166B0000EB1BAC0270011AD39400EC64809480E5
:10167B004009AC56AD5712047E80E622EF24FE6083
:10168B000E14600F146010240370137D80800A7D8C
:10169B009080067D8880027D98E4FF120A4522EF38
:1016AB0024FE600B14600C240270167D1C800D7DD3
:1016BB001880097D80E4FF120A457D0DE4FF120AB4
:1016CB004522E4FFF54FD29130B4010FC291E54FA3
:1016DB00C394075004EF25E0FF054FE54FB408E630
:1016EB00227F02120E3C400E7F03120E3C40077FFE
:1016FB0004120E3C5007D2007FB3120D6322AD07CC
:10170B00E4FCED75F00AA4FFECD39FE5F06480F8E0
:10171B0074809850030C80EA22021E0000025300D2
:10172B00000155000168000048001C00000000008B
:10173B00000000E4FEEEC39F5012E4FDE4FC0CEC51
:10174B00D3949840F90DBD64F30E80E922EF146039
:10175B000804700E9020008003903000E07874F63F
:10176B005DF67874E6FF2275A88A75B80275891143
:10177B00758850758CFC758A66758DFC758B662229
:10178B008F5EE4FF121337E55E700D7BFF7A1879DD
:10179B00217F027E001210D62275A89075892075C4
:1017AB009850758DFD758BFDD28EC299C29822E42F
:1017BB00FFFE1203F4600C0FEF70010E09E970F2DB
:1017CB000A80EF22E4FEEEC39F500CE4FD0DEDD337
:1017DB00949740F90E80EF22E47860F608F608F64D
:1017EB0008F608F608F608F608F622758CFC758ADA
:1017FB006632758DFC758B6632EF7002A2B2224594
:10180B0052504F4D204552524F52004552504F4D62
:10181B0020474F4F4400204D657465725F646973B8
:10182B00636F6E6E656374200020202020202020C3
:0A183B002020202020202020200083
:00000001FF
