:100000000202B7AC05AB07E4FA7D7F7F0212027FE4
:10001000430C0890A000E50CF0EB14600704700698
:1000200079F8800279FA7A07D3EA64809480503EA6
:1000300074017E00A802088005C333CE33CED8F900
:10004000FFE9F582E4FEEF5582A802088006CEA201
:10005000E713CE13D8F864014E70067D807F0180CF
:10006000047D7F7F0212027F1202751A80BAEC545F
:10007000F0FB7A07D3EA648094805024EB5402FFAB
:10008000A802088002C313D8FCFFBF01067D807F51
:100090000180047D7F7F0212027F1202751A80D4D4
:1000A000EC540FC454F0FB7A07D3EA648094805078
:1000B00024EB5402FFA802088002C313D8FCFFBF40
:1000C00001067D807F0180047D7F7F0212027F1206
:1000D00002751A80D4530CF790A000E50CF022BBF7
:1000E000010CE58229F582E5833AF583E02250068A
:1000F000E92582F8E622BBFE06E92582F8E222E540
:100100008229F582E5833AF583E49322C2D5EC3067
:10011000E709B2D5E4C39DFDE49CFCEE30E715B2DF
:10012000D5E4C39FFFE49EFE12015BC3E49DFDE4A2
:100130009CFC800312015B30D507C3E49FFFE49E63
:10014000FE22BB010689828A83E0225002E722BB9D
:10015000FE02E32289828A83E49322BC000BBE0064
:1001600029EF8DF084FFADF022E4CCF875F008EFB4
:100170002FFFEE33FEEC33FCEE9DEC984005FCEED9
:100180009DFE0FD5F0E9E4CEFD22EDF8F5F0EE840A
:1001900020D21CFEADF075F008EF2FFFED33FD40CF
:1001A00007985006D5F0F222C398FD0FD5F0EA2249
:1001B0008E128F138B148A158916E4F517F518F52E
:1001C00019F51A1202958E178F188055C3E51A95E6
:1001D00018E5176480F8E519648098504BAB14AAB1
:1001E00015A916051AE51AAE197002051914F5823B
:1001F0008E831200DFFD7F01120003AE19AF1A7C5F
:10020000007D1012010CED4C70C20513E513700255
:100210000512D39404E5129400400675120075137C
:1002200001AF1312025280A422EF14601114601265
:10023000146013146014240470177D08800E7D0C64
:10024000800A7D0E80067D0D80027D0FE4FF120086
:100250000322EF24FE600E14600F1460102403705C
:10026000137D80800A7D9080067D8880027D98E4E1
:10027000FF120003227D407F0112027F7DBF0FEF3E
:1002800024FE600804700DED42068003ED520690D6
:100290004000EEF022E4FFFE120142600C0FEF700E
:1002A000010E09E970F20A80EF227BFF7A0279C31E
:1002B0007F017E000201B0787FE4F6D8FD75811AD7
:0B02C0000202AA4142434445464700A9
:00000001FF
